{
  "contractName": "Manager",
  "abi": [
    {
      "constant": true,
      "inputs": [
        {
          "name": "",
          "type": "address"
        }
      ],
      "name": "accountToListenerAddr",
      "outputs": [
        {
          "name": "",
          "type": "address"
        }
      ],
      "payable": false,
      "stateMutability": "view",
      "type": "function"
    },
    {
      "constant": true,
      "inputs": [
        {
          "name": "",
          "type": "uint256"
        }
      ],
      "name": "allArtistsAddrs",
      "outputs": [
        {
          "name": "",
          "type": "address"
        }
      ],
      "payable": false,
      "stateMutability": "view",
      "type": "function"
    },
    {
      "constant": true,
      "inputs": [
        {
          "name": "",
          "type": "address"
        }
      ],
      "name": "accountToArtistAddr",
      "outputs": [
        {
          "name": "",
          "type": "address"
        }
      ],
      "payable": false,
      "stateMutability": "view",
      "type": "function"
    },
    {
      "anonymous": false,
      "inputs": [
        {
          "indexed": false,
          "name": "listenerAccount",
          "type": "address"
        },
        {
          "indexed": false,
          "name": "listenerAddr",
          "type": "address"
        },
        {
          "indexed": false,
          "name": "name",
          "type": "string"
        }
      ],
      "name": "ListenerCreated",
      "type": "event"
    },
    {
      "anonymous": false,
      "inputs": [
        {
          "indexed": false,
          "name": "artistAccount",
          "type": "address"
        },
        {
          "indexed": false,
          "name": "artistAddr",
          "type": "address"
        },
        {
          "indexed": false,
          "name": "name",
          "type": "string"
        }
      ],
      "name": "ArtistCreated",
      "type": "event"
    },
    {
      "constant": false,
      "inputs": [
        {
          "name": "_name",
          "type": "string"
        }
      ],
      "name": "registerArtist",
      "outputs": [],
      "payable": false,
      "stateMutability": "nonpayable",
      "type": "function"
    },
    {
      "constant": true,
      "inputs": [
        {
          "name": "_acc",
          "type": "address"
        }
      ],
      "name": "getArtistByAcc",
      "outputs": [
        {
          "name": "name",
          "type": "string"
        },
        {
          "name": "id",
          "type": "uint256"
        }
      ],
      "payable": false,
      "stateMutability": "view",
      "type": "function"
    },
    {
      "constant": true,
      "inputs": [],
      "name": "getAllArtistsAddrs",
      "outputs": [
        {
          "name": "",
          "type": "address[]"
        }
      ],
      "payable": false,
      "stateMutability": "view",
      "type": "function"
    },
    {
      "constant": true,
      "inputs": [
        {
          "name": "_idx",
          "type": "uint256"
        }
      ],
      "name": "getArtistNameByIndex",
      "outputs": [
        {
          "name": "",
          "type": "string"
        }
      ],
      "payable": false,
      "stateMutability": "view",
      "type": "function"
    },
    {
      "constant": false,
      "inputs": [
        {
          "name": "_name",
          "type": "string"
        }
      ],
      "name": "registerListener",
      "outputs": [],
      "payable": false,
      "stateMutability": "nonpayable",
      "type": "function"
    },
    {
      "constant": true,
      "inputs": [
        {
          "name": "_acc",
          "type": "address"
        }
      ],
      "name": "getListenerByAcc",
      "outputs": [
        {
          "name": "name",
          "type": "string"
        }
      ],
      "payable": false,
      "stateMutability": "view",
      "type": "function"
    }
  ],
  "bytecode": "0x6080604052336000806101000a81548173ffffffffffffffffffffffffffffffffffffffff021916908373ffffffffffffffffffffffffffffffffffffffff160217905550611d0d806100536000396000f300608060405260043610610099576000357c0100000000000000000000000000000000000000000000000000000000900463ffffffff1680630b0b57ca1461009e5780630c9adf091461015a5780631087fc7b146101dd5780631d1d2b651461024a57806329a47c8c146102b65780634b5f738e14610379578063884294d9146103fc5780639355d419146104a2578063a2dad5a6146104dd575b600080fd5b3480156100aa57600080fd5b506100df600480360381019080803573ffffffffffffffffffffffffffffffffffffffff169060200190929190505050610518565b6040518080602001828103825283818151815260200191508051906020019080838360005b8381101561011f578082015181840152602081019050610104565b50505050905090810190601f16801561014c5780820380516001836020036101000a031916815260200191505b509250505060405180910390f35b34801561016657600080fd5b5061019b600480360381019080803573ffffffffffffffffffffffffffffffffffffffff169060200190929190505050610680565b604051808273ffffffffffffffffffffffffffffffffffffffff1673ffffffffffffffffffffffffffffffffffffffff16815260200191505060405180910390f35b3480156101e957600080fd5b50610208600480360381019080803590602001909291905050506106b3565b604051808273ffffffffffffffffffffffffffffffffffffffff1673ffffffffffffffffffffffffffffffffffffffff16815260200191505060405180910390f35b34801561025657600080fd5b5061025f6106f1565b6040518080602001828103825283818151815260200191508051906020019060200280838360005b838110156102a2578082015181840152602081019050610287565b505050509050019250505060405180910390f35b3480156102c257600080fd5b506102f7600480360381019080803573ffffffffffffffffffffffffffffffffffffffff16906020019092919050505061077f565b6040518080602001838152602001828103825284818151815260200191508051906020019080838360005b8381101561033d578082015181840152602081019050610322565b50505050905090810190601f16801561036a5780820380516001836020036101000a031916815260200191505b50935050505060405180910390f35b34801561038557600080fd5b506103ba600480360381019080803573ffffffffffffffffffffffffffffffffffffffff16906020019092919050505061098a565b604051808273ffffffffffffffffffffffffffffffffffffffff1673ffffffffffffffffffffffffffffffffffffffff16815260200191505060405180910390f35b34801561040857600080fd5b50610427600480360381019080803590602001909291905050506109bd565b6040518080602001828103825283818151815260200191508051906020019080838360005b8381101561046757808201518184015260208101905061044c565b50505050905090810190601f1680156104945780820380516001836020036101000a031916815260200191505b509250505060405180910390f35b3480156104ae57600080fd5b506104db600480360381019080803590602001908201803590602001919091929391929390505050610af4565b005b3480156104e957600080fd5b50610516600480360381019080803590602001908201803590602001919091929391929390505050610e0d565b005b6060600080600260008573ffffffffffffffffffffffffffffffffffffffff1673ffffffffffffffffffffffffffffffffffffffff16815260200190815260200160002060009054906101000a900473ffffffffffffffffffffffffffffffffffffffff1691508190508073ffffffffffffffffffffffffffffffffffffffff166317d7de7c6040518163ffffffff167c0100000000000000000000000000000000000000000000000000000000028152600401600060405180830381600087803b1580156105e657600080fd5b505af11580156105fa573d6000803e3d6000fd5b505050506040513d6000823e3d601f19601f82011682018060405250602081101561062457600080fd5b81019080805164010000000081111561063c57600080fd5b8281019050602081018481111561065257600080fd5b815185600182028301116401000000008211171561066f57600080fd5b505092919050505092505050919050565b60026020528060005260406000206000915054906101000a900473ffffffffffffffffffffffffffffffffffffffff1681565b6004818154811015156106c257fe5b906000526020600020016000915054906101000a900473ffffffffffffffffffffffffffffffffffffffff1681565b6060600480548060200260200160405190810160405280929190818152602001828054801561077557602002820191906000526020600020905b8160009054906101000a900473ffffffffffffffffffffffffffffffffffffffff1673ffffffffffffffffffffffffffffffffffffffff168152602001906001019080831161072b575b5050505050905090565b60606000806000600160008673ffffffffffffffffffffffffffffffffffffffff1673ffffffffffffffffffffffffffffffffffffffff16815260200190815260200160002060009054906101000a900473ffffffffffffffffffffffffffffffffffffffff1691508190508073ffffffffffffffffffffffffffffffffffffffff166317d7de7c6040518163ffffffff167c0100000000000000000000000000000000000000000000000000000000028152600401600060405180830381600087803b15801561084f57600080fd5b505af1158015610863573d6000803e3d6000fd5b505050506040513d6000823e3d601f19601f82011682018060405250602081101561088d57600080fd5b8101908080516401000000008111156108a557600080fd5b828101905060208101848111156108bb57600080fd5b81518560018202830111640100000000821117156108d857600080fd5b50509291905050508173ffffffffffffffffffffffffffffffffffffffff1663ab9dbd076040518163ffffffff167c0100000000000000000000000000000000000000000000000000000000028152600401602060405180830381600087803b15801561094457600080fd5b505af1158015610958573d6000803e3d6000fd5b505050506040513d602081101561096e57600080fd5b8101908080519060200190929190505050935093505050915091565b60016020528060005260406000206000915054906101000a900473ffffffffffffffffffffffffffffffffffffffff1681565b60606004828154811015156109ce57fe5b9060005260206000200160009054906101000a900473ffffffffffffffffffffffffffffffffffffffff1673ffffffffffffffffffffffffffffffffffffffff166317d7de7c6040518163ffffffff167c0100000000000000000000000000000000000000000000000000000000028152600401600060405180830381600087803b158015610a5c57600080fd5b505af1158015610a70573d6000803e3d6000fd5b505050506040513d6000823e3d601f19601f820116820180604052506020811015610a9a57600080fd5b810190808051640100000000811115610ab257600080fd5b82810190506020810184811115610ac857600080fd5b8151856001820283011164010000000082111715610ae557600080fd5b50509291905050509050919050565b8181600480549050610b04610ff0565b808060200183815260200182810382528585828181526020019250808284378201915050945050505050604051809103906000f080158015610b4a573d6000803e3d6000fd5b50600160003373ffffffffffffffffffffffffffffffffffffffff1673ffffffffffffffffffffffffffffffffffffffff16815260200190815260200160002060006101000a81548173ffffffffffffffffffffffffffffffffffffffff021916908373ffffffffffffffffffffffffffffffffffffffff1602179055506004600160003373ffffffffffffffffffffffffffffffffffffffff1673ffffffffffffffffffffffffffffffffffffffff16815260200190815260200160002060009054906101000a900473ffffffffffffffffffffffffffffffffffffffff1690806001815401808255809150509060018203906000526020600020016000909192909190916101000a81548173ffffffffffffffffffffffffffffffffffffffff021916908373ffffffffffffffffffffffffffffffffffffffff16021790555050336003838360405180838380828437820191505092505050908152602001604051809103902060006101000a81548173ffffffffffffffffffffffffffffffffffffffff021916908373ffffffffffffffffffffffffffffffffffffffff1602179055507f684515f4922b040c5cd6c46e1e959e031b33ad87b658f6b8472454dc4c447f2a33600160003373ffffffffffffffffffffffffffffffffffffffff1673ffffffffffffffffffffffffffffffffffffffff16815260200190815260200160002060009054906101000a900473ffffffffffffffffffffffffffffffffffffffff168484604051808573ffffffffffffffffffffffffffffffffffffffff1673ffffffffffffffffffffffffffffffffffffffff1681526020018473ffffffffffffffffffffffffffffffffffffffff1673ffffffffffffffffffffffffffffffffffffffff16815260200180602001828103825284848281815260200192508082843782019150509550505050505060405180910390a15050565b8181610e17611000565b8080602001828103825284848281815260200192508082843782019150509350505050604051809103906000f080158015610e56573d6000803e3d6000fd5b50600260003373ffffffffffffffffffffffffffffffffffffffff1673ffffffffffffffffffffffffffffffffffffffff16815260200190815260200160002060006101000a81548173ffffffffffffffffffffffffffffffffffffffff021916908373ffffffffffffffffffffffffffffffffffffffff1602179055507fbed5072071b3717fcc2439be7e5f72602224398cc42b8ace1582dee094b3d04b33600260003373ffffffffffffffffffffffffffffffffffffffff1673ffffffffffffffffffffffffffffffffffffffff16815260200190815260200160002060009054906101000a900473ffffffffffffffffffffffffffffffffffffffff168484604051808573ffffffffffffffffffffffffffffffffffffffff1673ffffffffffffffffffffffffffffffffffffffff1681526020018473ffffffffffffffffffffffffffffffffffffffff1673ffffffffffffffffffffffffffffffffffffffff16815260200180602001828103825284848281815260200192508082843782019150509550505050505060405180910390a15050565b6040516106938061101183390190565b60405161063e806116a483390190560060806040526040516106933803806106938339810180604052810190808051820192919060200180519060200190929190505050336000806101000a81548173ffffffffffffffffffffffffffffffffffffffff021916908373ffffffffffffffffffffffffffffffffffffffff1602179055508160019080519060200190610089929190610098565b5080600281905550505061013d565b828054600181600116156101000203166002900490600052602060002090601f016020900481019282601f106100d957805160ff1916838001178555610107565b82800160010185558215610107579182015b828111156101065782518255916020019190600101906100eb565b5b5090506101149190610118565b5090565b61013a91905b8082111561013657600081600090555060010161011e565b5090565b90565b6105478061014c6000396000f300608060405260043610610062576000357c0100000000000000000000000000000000000000000000000000000000900463ffffffff16806317d7de7c146100675780633ccfd60b146100f7578063ab9dbd071461010e578063c71daccb14610139575b600080fd5b34801561007357600080fd5b5061007c610164565b6040518080602001828103825283818151815260200191508051906020019080838360005b838110156100bc5780820151818401526020810190506100a1565b50505050905090810190601f1680156100e95780820380516001836020036101000a031916815260200191505b509250505060405180910390f35b34801561010357600080fd5b5061010c610206565b005b34801561011a57600080fd5b5061012361033c565b6040518082815260200191505060405180910390f35b34801561014557600080fd5b5061014e610346565b6040518082815260200191505060405180910390f35b606060018054600181600116156101000203166002900480601f0160208091040260200160405190810160405280929190818152602001828054600181600116156101000203166002900480156101fc5780601f106101d1576101008083540402835291602001916101fc565b820191906000526020600020905b8154815290600101906020018083116101df57829003601f168201915b5050505050905090565b6000806000809054906101000a900473ffffffffffffffffffffffffffffffffffffffff1673ffffffffffffffffffffffffffffffffffffffff163373ffffffffffffffffffffffffffffffffffffffff161415156102cd576040517f08c379a00000000000000000000000000000000000000000000000000000000081526004018080602001828103825260128152602001807f5065726d697373696f6e2064656e6965642e000000000000000000000000000081525060200191505060405180910390fd5b3091506102d861042e565b90508073ffffffffffffffffffffffffffffffffffffffff166108fc8373ffffffffffffffffffffffffffffffffffffffff16319081150290604051600060405180830381858888f19350505050158015610337573d6000803e3d6000fd5b505050565b6000600254905090565b6000806000809054906101000a900473ffffffffffffffffffffffffffffffffffffffff1673ffffffffffffffffffffffffffffffffffffffff163373ffffffffffffffffffffffffffffffffffffffff1614151561040d576040517f08c379a00000000000000000000000000000000000000000000000000000000081526004018080602001828103825260128152602001807f5065726d697373696f6e2064656e6965642e000000000000000000000000000081525060200191505060405180910390fd5b3090508073ffffffffffffffffffffffffffffffffffffffff163191505090565b60008060009054906101000a900473ffffffffffffffffffffffffffffffffffffffff1673ffffffffffffffffffffffffffffffffffffffff163373ffffffffffffffffffffffffffffffffffffffff161415156104f4576040517f08c379a00000000000000000000000000000000000000000000000000000000081526004018080602001828103825260128152602001807f5065726d697373696f6e2064656e6965642e000000000000000000000000000081525060200191505060405180910390fd5b6000809054906101000a900473ffffffffffffffffffffffffffffffffffffffff169050905600a165627a7a7230582074403f07087e03a179984a5f91dfdbf462d60bfdc399006df834bdb4563db20a0029608060405260405161063e38038061063e83398101806040528101908080518201929190505050336000806101000a81548173ffffffffffffffffffffffffffffffffffffffff021916908373ffffffffffffffffffffffffffffffffffffffff160217905550806001908051906020019061007c929190610083565b5050610128565b828054600181600116156101000203166002900490600052602060002090601f016020900481019282601f106100c457805160ff19168380011785556100f2565b828001600101855582156100f2579182015b828111156100f15782518255916020019190600101906100d6565b5b5090506100ff9190610103565b5090565b61012591905b80821115610121576000816000905550600101610109565b5090565b90565b610507806101376000396000f300608060405260043610610057576000357c0100000000000000000000000000000000000000000000000000000000900463ffffffff16806317d7de7c1461005c5780633ccfd60b146100ec578063c71daccb14610103575b600080fd5b34801561006857600080fd5b5061007161012e565b6040518080602001828103825283818151815260200191508051906020019080838360005b838110156100b1578082015181840152602081019050610096565b50505050905090810190601f1680156100de5780820380516001836020036101000a031916815260200191505b509250505060405180910390f35b3480156100f857600080fd5b506101016101d0565b005b34801561010f57600080fd5b50610118610306565b6040518082815260200191505060405180910390f35b606060018054600181600116156101000203166002900480601f0160208091040260200160405190810160405280929190818152602001828054600181600116156101000203166002900480156101c65780601f1061019b576101008083540402835291602001916101c6565b820191906000526020600020905b8154815290600101906020018083116101a957829003601f168201915b5050505050905090565b6000806000809054906101000a900473ffffffffffffffffffffffffffffffffffffffff1673ffffffffffffffffffffffffffffffffffffffff163373ffffffffffffffffffffffffffffffffffffffff16141515610297576040517f08c379a00000000000000000000000000000000000000000000000000000000081526004018080602001828103825260128152602001807f5065726d697373696f6e2064656e6965642e000000000000000000000000000081525060200191505060405180910390fd5b3091506102a26103ee565b90508073ffffffffffffffffffffffffffffffffffffffff166108fc8373ffffffffffffffffffffffffffffffffffffffff16319081150290604051600060405180830381858888f19350505050158015610301573d6000803e3d6000fd5b505050565b6000806000809054906101000a900473ffffffffffffffffffffffffffffffffffffffff1673ffffffffffffffffffffffffffffffffffffffff163373ffffffffffffffffffffffffffffffffffffffff161415156103cd576040517f08c379a00000000000000000000000000000000000000000000000000000000081526004018080602001828103825260128152602001807f5065726d697373696f6e2064656e6965642e000000000000000000000000000081525060200191505060405180910390fd5b3090508073ffffffffffffffffffffffffffffffffffffffff163191505090565b60008060009054906101000a900473ffffffffffffffffffffffffffffffffffffffff1673ffffffffffffffffffffffffffffffffffffffff163373ffffffffffffffffffffffffffffffffffffffff161415156104b4576040517f08c379a00000000000000000000000000000000000000000000000000000000081526004018080602001828103825260128152602001807f5065726d697373696f6e2064656e6965642e000000000000000000000000000081525060200191505060405180910390fd5b6000809054906101000a900473ffffffffffffffffffffffffffffffffffffffff169050905600a165627a7a72305820bc86cb3fb5ba20f504cc64895342750222bf6301fd5ce94d2314c7f15f543b9b0029a165627a7a72305820320d1e2c119c644b05337ae6e7bee20e225a82af724e189d9a5337345f9835df0029",
  "source": "pragma solidity ^0.4.23;\n\nimport \"./Ownable.sol\";\nimport \"./Artist.sol\";\nimport \"./Listener.sol\";\nimport \"./SongLib.sol\";\n\ncontract Manager is Ownable {\n    event ListenerCreated(address listenerAccount, address listenerAddr, string name);\n    event ArtistCreated(address artistAccount, address artistAddr, string name);\n\n    mapping (address => address) public accountToArtistAddr;\n    mapping (address => address) public accountToListenerAddr;\n    mapping (string => address) artistNameToArtistAccount;\n\n    address[] public allArtistsAddrs;\n\n    // Artist\n    // TODO: addressing exception for same name of user\n    function registerArtist(string _name) external {\n        accountToArtistAddr[msg.sender] = new Artist(_name, allArtistsAddrs.length);\n        allArtistsAddrs.push(accountToArtistAddr[msg.sender]);\n        artistNameToArtistAccount[_name] = msg.sender;\n        emit ArtistCreated(msg.sender, accountToArtistAddr[msg.sender], _name);\n    }\n\n    function getArtistByAcc(address _acc) public view returns (\n        string name,\n        uint id\n    ) {\n        address artistAddr = accountToArtistAddr[_acc];\n        Artist artist = Artist(artistAddr);\n        return (artist.getName(), artist.getID());\n    }\n\n    function getAllArtistsAddrs() public view returns (address[]) {\n        return allArtistsAddrs;\n    }\n\n    function getArtistNameByIndex(uint _idx) public view returns (string) {\n        return Artist(allArtistsAddrs[_idx]).getName();\n    }\n\n    // Listener\n    function registerListener(string _name) external {\n        accountToListenerAddr[msg.sender] = new Listener(_name);\n        emit ListenerCreated(msg.sender, accountToListenerAddr[msg.sender], _name);\n    }\n\n    function getListenerByAcc(address _acc) public view returns (\n        string name\n    ) {\n        address listenerAddr = accountToListenerAddr[_acc];\n        Listener listener = Listener(listenerAddr);\n        return listener.getName();\n    }\n}\n",
  "sourcePath": "/home/brian/Desktop/jajup/truffle/contracts/Manager.sol",
  "compiler": {
    "name": "solc",
    "version": "0.4.24+commit.e67f0147.Emscripten.clang"
  },
  "schemaVersion": "2.0.1",
  "updatedAt": "2018-11-30T16:42:31.627Z"
}