{
  "contractName": "SongManager",
  "abi": [
    {
      "constant": true,
      "inputs": [
        {
          "name": "_acc",
          "type": "address"
        }
      ],
      "name": "getListenerByAcc",
      "outputs": [
        {
          "name": "name",
          "type": "string"
        }
      ],
      "payable": false,
      "stateMutability": "view",
      "type": "function"
    },
    {
      "constant": true,
      "inputs": [
        {
          "name": "",
          "type": "address"
        }
      ],
      "name": "accountToListenerAddr",
      "outputs": [
        {
          "name": "",
          "type": "address"
        }
      ],
      "payable": false,
      "stateMutability": "view",
      "type": "function"
    },
    {
      "constant": true,
      "inputs": [
        {
          "name": "",
          "type": "uint256"
        }
      ],
      "name": "allArtistsAddrs",
      "outputs": [
        {
          "name": "",
          "type": "address"
        }
      ],
      "payable": false,
      "stateMutability": "view",
      "type": "function"
    },
    {
      "constant": true,
      "inputs": [],
      "name": "getAllArtistsAddrs",
      "outputs": [
        {
          "name": "",
          "type": "address[]"
        }
      ],
      "payable": false,
      "stateMutability": "view",
      "type": "function"
    },
    {
      "constant": true,
      "inputs": [
        {
          "name": "_acc",
          "type": "address"
        }
      ],
      "name": "getArtistByAcc",
      "outputs": [
        {
          "name": "name",
          "type": "string"
        },
        {
          "name": "id",
          "type": "uint256"
        }
      ],
      "payable": false,
      "stateMutability": "view",
      "type": "function"
    },
    {
      "constant": true,
      "inputs": [
        {
          "name": "",
          "type": "uint256"
        }
      ],
      "name": "songs",
      "outputs": [
        {
          "name": "id",
          "type": "uint256"
        },
        {
          "name": "artistName",
          "type": "string"
        },
        {
          "name": "title",
          "type": "string"
        },
        {
          "name": "artistID",
          "type": "uint256"
        }
      ],
      "payable": false,
      "stateMutability": "view",
      "type": "function"
    },
    {
      "constant": true,
      "inputs": [
        {
          "name": "",
          "type": "uint256"
        }
      ],
      "name": "songIDToArtistAccount",
      "outputs": [
        {
          "name": "",
          "type": "address"
        }
      ],
      "payable": false,
      "stateMutability": "view",
      "type": "function"
    },
    {
      "constant": true,
      "inputs": [
        {
          "name": "",
          "type": "address"
        }
      ],
      "name": "accountToArtistAddr",
      "outputs": [
        {
          "name": "",
          "type": "address"
        }
      ],
      "payable": false,
      "stateMutability": "view",
      "type": "function"
    },
    {
      "constant": true,
      "inputs": [
        {
          "name": "",
          "type": "address"
        }
      ],
      "name": "artistAccountToSongCount",
      "outputs": [
        {
          "name": "",
          "type": "uint256"
        }
      ],
      "payable": false,
      "stateMutability": "view",
      "type": "function"
    },
    {
      "constant": true,
      "inputs": [
        {
          "name": "_idx",
          "type": "uint256"
        }
      ],
      "name": "getArtistNameByIndex",
      "outputs": [
        {
          "name": "",
          "type": "string"
        }
      ],
      "payable": false,
      "stateMutability": "view",
      "type": "function"
    },
    {
      "constant": false,
      "inputs": [
        {
          "name": "_name",
          "type": "string"
        }
      ],
      "name": "registerArtist",
      "outputs": [],
      "payable": false,
      "stateMutability": "nonpayable",
      "type": "function"
    },
    {
      "constant": false,
      "inputs": [
        {
          "name": "_name",
          "type": "string"
        }
      ],
      "name": "registerListener",
      "outputs": [],
      "payable": false,
      "stateMutability": "nonpayable",
      "type": "function"
    },
    {
      "constant": true,
      "inputs": [
        {
          "name": "",
          "type": "address"
        }
      ],
      "name": "listenerAccountToSongCount",
      "outputs": [
        {
          "name": "",
          "type": "uint256"
        }
      ],
      "payable": false,
      "stateMutability": "view",
      "type": "function"
    },
    {
      "inputs": [],
      "payable": true,
      "stateMutability": "payable",
      "type": "constructor"
    },
    {
      "payable": true,
      "stateMutability": "payable",
      "type": "fallback"
    },
    {
      "anonymous": false,
      "inputs": [
        {
          "indexed": false,
          "name": "songID",
          "type": "uint256"
        },
        {
          "indexed": false,
          "name": "title",
          "type": "string"
        },
        {
          "indexed": false,
          "name": "ipfsHash",
          "type": "string"
        }
      ],
      "name": "SongCreated",
      "type": "event"
    },
    {
      "anonymous": false,
      "inputs": [
        {
          "indexed": false,
          "name": "listenerAccount",
          "type": "address"
        },
        {
          "indexed": false,
          "name": "listenerAddr",
          "type": "address"
        },
        {
          "indexed": false,
          "name": "name",
          "type": "string"
        }
      ],
      "name": "ListenerCreated",
      "type": "event"
    },
    {
      "anonymous": false,
      "inputs": [
        {
          "indexed": false,
          "name": "artistAccount",
          "type": "address"
        },
        {
          "indexed": false,
          "name": "artistAddr",
          "type": "address"
        },
        {
          "indexed": false,
          "name": "name",
          "type": "string"
        }
      ],
      "name": "ArtistCreated",
      "type": "event"
    },
    {
      "constant": false,
      "inputs": [
        {
          "name": "_title",
          "type": "string"
        },
        {
          "name": "_ipfsHash",
          "type": "string"
        }
      ],
      "name": "registerSong",
      "outputs": [],
      "payable": false,
      "stateMutability": "nonpayable",
      "type": "function"
    },
    {
      "constant": false,
      "inputs": [
        {
          "name": "_id",
          "type": "uint256"
        }
      ],
      "name": "buySong",
      "outputs": [],
      "payable": true,
      "stateMutability": "payable",
      "type": "function"
    },
    {
      "constant": true,
      "inputs": [
        {
          "name": "_idx",
          "type": "uint256"
        }
      ],
      "name": "getSongIDsByArtistID",
      "outputs": [
        {
          "name": "",
          "type": "uint256[]"
        }
      ],
      "payable": false,
      "stateMutability": "view",
      "type": "function"
    },
    {
      "constant": true,
      "inputs": [
        {
          "name": "_name",
          "type": "string"
        }
      ],
      "name": "getSongIDsByArtistName",
      "outputs": [
        {
          "name": "",
          "type": "uint256[]"
        }
      ],
      "payable": false,
      "stateMutability": "view",
      "type": "function"
    },
    {
      "constant": true,
      "inputs": [
        {
          "name": "songID",
          "type": "uint256"
        }
      ],
      "name": "getSongBySongID",
      "outputs": [
        {
          "name": "",
          "type": "string"
        },
        {
          "name": "",
          "type": "uint256"
        },
        {
          "name": "",
          "type": "string"
        }
      ],
      "payable": false,
      "stateMutability": "view",
      "type": "function"
    }
  ],
  "bytecode": "0x6080604052336000806101000a81548173ffffffffffffffffffffffffffffffffffffffff021916908373ffffffffffffffffffffffffffffffffffffffff16021790555061356e806100536000396000f3006080604052600436106200010f576000357c0100000000000000000000000000000000000000000000000000000000900463ffffffff1680630b0b57ca14620001145780630c9adf0914620001d65780631087fc7b146200025c5780631d1d2b6514620002cc57806329a47c8c146200033d578063304cff3014620004065780634b4e2f8f146200052f5780634b5f738e146200059f5780634fcb86d01462000625578063606a0175146200067f5780637c86563014620006a15780637f810bb81462000728578063884294d914620007eb5780639355d4191462000897578063a2dad5a614620008d5578063c38fae971462000913578063d71a4a0914620009c5578063f1beb7b11462000a1f575b600080fd5b3480156200012157600080fd5b5062000158600480360381019080803573ffffffffffffffffffffffffffffffffffffffff16906020019092919050505062000b41565b6040518080602001828103825283818151815260200191508051906020019080838360005b838110156200019a5780820151818401526020810190506200017d565b50505050905090810190601f168015620001c85780820380516001836020036101000a031916815260200191505b509250505060405180910390f35b348015620001e357600080fd5b506200021a600480360381019080803573ffffffffffffffffffffffffffffffffffffffff16906020019092919050505062000caf565b604051808273ffffffffffffffffffffffffffffffffffffffff1673ffffffffffffffffffffffffffffffffffffffff16815260200191505060405180910390f35b3480156200026957600080fd5b506200028a6004803603810190808035906020019092919050505062000ce2565b604051808273ffffffffffffffffffffffffffffffffffffffff1673ffffffffffffffffffffffffffffffffffffffff16815260200191505060405180910390f35b348015620002d957600080fd5b50620002e462000d21565b6040518080602001828103825283818151815260200191508051906020019060200280838360005b83811015620003295780820151818401526020810190506200030c565b505050509050019250505060405180910390f35b3480156200034a57600080fd5b5062000381600480360381019080803573ffffffffffffffffffffffffffffffffffffffff16906020019092919050505062000db1565b6040518080602001838152602001828103825284818151815260200191508051906020019080838360005b83811015620003c9578082015181840152602081019050620003ac565b50505050905090810190601f168015620003f75780820380516001836020036101000a031916815260200191505b50935050505060405180910390f35b3480156200041357600080fd5b50620004346004803603810190808035906020019092919050505062000fc5565b604051808581526020018060200180602001848152602001838103835286818151815260200191508051906020019080838360005b838110156200048657808201518184015260208101905062000469565b50505050905090810190601f168015620004b45780820380516001836020036101000a031916815260200191505b50838103825285818151815260200191508051906020019080838360005b83811015620004ef578082015181840152602081019050620004d2565b50505050905090810190601f1680156200051d5780820380516001836020036101000a031916815260200191505b50965050505050505060405180910390f35b3480156200053c57600080fd5b506200055d600480360381019080803590602001909291905050506200113d565b604051808273ffffffffffffffffffffffffffffffffffffffff1673ffffffffffffffffffffffffffffffffffffffff16815260200191505060405180910390f35b348015620005ac57600080fd5b50620005e3600480360381019080803573ffffffffffffffffffffffffffffffffffffffff16906020019092919050505062001170565b604051808273ffffffffffffffffffffffffffffffffffffffff1673ffffffffffffffffffffffffffffffffffffffff16815260200191505060405180910390f35b3480156200063257600080fd5b5062000669600480360381019080803573ffffffffffffffffffffffffffffffffffffffff169060200190929190505050620011a3565b6040518082815260200191505060405180910390f35b6200069f60048036038101908080359060200190929190505050620011bb565b005b348015620006ae57600080fd5b50620006cf60048036038101908080359060200190929190505050620015d0565b6040518080602001828103825283818151815260200191508051906020019060200280838360005b8381101562000714578082015181840152602081019050620006f7565b505050509050019250505060405180910390f35b3480156200073557600080fd5b5062000792600480360381019080803590602001908201803590602001908080601f0160208091040260200160405190810160405280939291908181526020018383808284378201915050505050509192919290505050620017a8565b6040518080602001828103825283818151815260200191508051906020019060200280838360005b83811015620007d7578082015181840152602081019050620007ba565b505050509050019250505060405180910390f35b348015620007f857600080fd5b50620008196004803603810190808035906020019092919050505062001971565b6040518080602001828103825283818151815260200191508051906020019080838360005b838110156200085b5780820151818401526020810190506200083e565b50505050905090810190601f168015620008895780820380516001836020036101000a031916815260200191505b509250505060405180910390f35b348015620008a457600080fd5b50620008d360048036038101908080359060200190820180359060200191909192939192939050505062001aaf565b005b348015620008e257600080fd5b506200091160048036038101908080359060200190820180359060200191909192939192939050505062001dcb565b005b3480156200092057600080fd5b50620009c3600480360381019080803590602001908201803590602001908080601f0160208091040260200160405190810160405280939291908181526020018383808284378201915050505050509192919290803590602001908201803590602001908080601f016020809104026020016040519081016040528093929190818152602001838380828437820191505050505050919291929050505062001fb1565b005b348015620009d257600080fd5b5062000a09600480360381019080803573ffffffffffffffffffffffffffffffffffffffff1690602001909291905050506200251a565b6040518082815260200191505060405180910390f35b34801562000a2c57600080fd5b5062000a4d6004803603810190808035906020019092919050505062002532565b604051808060200184815260200180602001838103835286818151815260200191508051906020019080838360005b8381101562000a9957808201518184015260208101905062000a7c565b50505050905090810190601f16801562000ac75780820380516001836020036101000a031916815260200191505b50838103825284818151815260200191508051906020019080838360005b8381101562000b0257808201518184015260208101905062000ae5565b50505050905090810190601f16801562000b305780820380516001836020036101000a031916815260200191505b509550505050505060405180910390f35b6060600080600260008573ffffffffffffffffffffffffffffffffffffffff1673ffffffffffffffffffffffffffffffffffffffff16815260200190815260200160002060009054906101000a900473ffffffffffffffffffffffffffffffffffffffff1691508190508073ffffffffffffffffffffffffffffffffffffffff166317d7de7c6040518163ffffffff167c0100000000000000000000000000000000000000000000000000000000028152600401600060405180830381600087803b15801562000c1057600080fd5b505af115801562000c25573d6000803e3d6000fd5b505050506040513d6000823e3d601f19601f82011682018060405250602081101562000c5057600080fd5b81019080805164010000000081111562000c6957600080fd5b8281019050602081018481111562000c8057600080fd5b815185600182028301116401000000008211171562000c9e57600080fd5b505092919050505092505050919050565b60026020528060005260406000206000915054906101000a900473ffffffffffffffffffffffffffffffffffffffff1681565b60048181548110151562000cf257fe5b906000526020600020016000915054906101000a900473ffffffffffffffffffffffffffffffffffffffff1681565b6060600480548060200260200160405190810160405280929190818152602001828054801562000da757602002820191906000526020600020905b8160009054906101000a900473ffffffffffffffffffffffffffffffffffffffff1673ffffffffffffffffffffffffffffffffffffffff168152602001906001019080831162000d5c575b5050505050905090565b60606000806000600160008673ffffffffffffffffffffffffffffffffffffffff1673ffffffffffffffffffffffffffffffffffffffff16815260200190815260200160002060009054906101000a900473ffffffffffffffffffffffffffffffffffffffff1691508190508073ffffffffffffffffffffffffffffffffffffffff166317d7de7c6040518163ffffffff167c0100000000000000000000000000000000000000000000000000000000028152600401600060405180830381600087803b15801562000e8257600080fd5b505af115801562000e97573d6000803e3d6000fd5b505050506040513d6000823e3d601f19601f82011682018060405250602081101562000ec257600080fd5b81019080805164010000000081111562000edb57600080fd5b8281019050602081018481111562000ef257600080fd5b815185600182028301116401000000008211171562000f1057600080fd5b50509291905050508173ffffffffffffffffffffffffffffffffffffffff1663ab9dbd076040518163ffffffff167c0100000000000000000000000000000000000000000000000000000000028152600401602060405180830381600087803b15801562000f7d57600080fd5b505af115801562000f92573d6000803e3d6000fd5b505050506040513d602081101562000fa957600080fd5b8101908080519060200190929190505050935093505050915091565b60058181548110151562000fd557fe5b9060005260206000209060040201600091509050806000015490806001018054600181600116156101000203166002900480601f0160208091040260200160405190810160405280929190818152602001828054600181600116156101000203166002900480156200108b5780601f106200105f576101008083540402835291602001916200108b565b820191906000526020600020905b8154815290600101906020018083116200106d57829003601f168201915b505050505090806002018054600181600116156101000203166002900480601f0160208091040260200160405190810160405280929190818152602001828054600181600116156101000203166002900480156200112d5780601f1062001101576101008083540402835291602001916200112d565b820191906000526020600020905b8154815290600101906020018083116200110f57829003601f168201915b5050505050908060030154905084565b60086020528060005260406000206000915054906101000a900473ffffffffffffffffffffffffffffffffffffffff1681565b60016020528060005260406000206000915054906101000a900473ffffffffffffffffffffffffffffffffffffffff1681565b60096020528060005260406000206000915090505481565b6000336000600260008373ffffffffffffffffffffffffffffffffffffffff1673ffffffffffffffffffffffffffffffffffffffff16815260200190815260200160002060009054906101000a900473ffffffffffffffffffffffffffffffffffffffff1673ffffffffffffffffffffffffffffffffffffffff1614151515620012ad576040517f08c379a000000000000000000000000000000000000000000000000000000000815260040180806020018281038252601a8152602001807f6d73672e73656e6465722069736e2774206c697374656e65722100000000000081525060200191505060405180910390fd5b6064600660003373ffffffffffffffffffffffffffffffffffffffff1673ffffffffffffffffffffffffffffffffffffffff1681526020019081526020016000206000016000858152602001908152602001600020600001541415156200137c576040517f08c379a00000000000000000000000000000000000000000000000000000000081526004018080602001828103825260188152602001807f74686520736f6e6720616c72656164792065787369747321000000000000000081525060200191505060405180910390fd5b670de0b6b3a76400003414151562001422576040517f08c379a000000000000000000000000000000000000000000000000000000000815260040180806020018281038252602b8152602001807f6e6f7420656e6f756768206f7220746f6f206d75636820657468657220746f2081526020017f627579206120736f6e672100000000000000000000000000000000000000000081525060400191505060405180910390fd5b6008600084815260200190815260200160002060009054906101000a900473ffffffffffffffffffffffffffffffffffffffff1691508173ffffffffffffffffffffffffffffffffffffffff166108fc349081150290604051600060405180830381858888f193505050501580156200149f573d6000803e3d6000fd5b50600583815481101515620014b057fe5b9060005260206000209060040201600660003373ffffffffffffffffffffffffffffffffffffffff1673ffffffffffffffffffffffffffffffffffffffff1681526020019081526020016000206000016000858152602001908152602001600020600082015481600001556001820181600101908054600181600116156101000203166002900462001544929190620026e9565b50600282018160020190805460018160011615610100020316600290046200156e929190620026e9565b5060038201548160030155905050600760003373ffffffffffffffffffffffffffffffffffffffff1673ffffffffffffffffffffffffffffffffffffffff16815260200190815260200160002060008154809291906001019190505550505050565b60608060006060600080620015e58762001971565b94506003856040518082805190602001908083835b602083101515620016215780518252602082019150602081019050602083039250620015fa565b6001836020036101000a038019825116818451168082178552505050505050905001915050908152602001604051809103902060009054906101000a900473ffffffffffffffffffffffffffffffffffffffff169350600960008573ffffffffffffffffffffffffffffffffffffffff1673ffffffffffffffffffffffffffffffffffffffff16815260200190815260200160002054604051908082528060200260200182016040528015620016e65781602001602082028038833980820191505090505b50925060009150600090505b6005805490508110156200179b578373ffffffffffffffffffffffffffffffffffffffff166008600083815260200190815260200160002060009054906101000a900473ffffffffffffffffffffffffffffffffffffffff1673ffffffffffffffffffffffffffffffffffffffff1614156200178d578083838060010194508151811015156200177e57fe5b90602001906020020181815250505b8080600101915050620016f2565b8295505050505050919050565b6060600060606000806003866040518082805190602001908083835b602083101515620017eb5780518252602082019150602081019050602083039250620017c4565b6001836020036101000a038019825116818451168082178552505050505050905001915050908152602001604051809103902060009054906101000a900473ffffffffffffffffffffffffffffffffffffffff169350600960008573ffffffffffffffffffffffffffffffffffffffff1673ffffffffffffffffffffffffffffffffffffffff16815260200190815260200160002054604051908082528060200260200182016040528015620018b05781602001602082028038833980820191505090505b50925060009150600090505b60058054905081101562001965578373ffffffffffffffffffffffffffffffffffffffff166008600083815260200190815260200160002060009054906101000a900473ffffffffffffffffffffffffffffffffffffffff1673ffffffffffffffffffffffffffffffffffffffff16141562001957578083838060010194508151811015156200194857fe5b90602001906020020181815250505b8080600101915050620018bc565b82945050505050919050565b60606004828154811015156200198357fe5b9060005260206000200160009054906101000a900473ffffffffffffffffffffffffffffffffffffffff1673ffffffffffffffffffffffffffffffffffffffff166317d7de7c6040518163ffffffff167c0100000000000000000000000000000000000000000000000000000000028152600401600060405180830381600087803b15801562001a1257600080fd5b505af115801562001a27573d6000803e3d6000fd5b505050506040513d6000823e3d601f19601f82011682018060405250602081101562001a5257600080fd5b81019080805164010000000081111562001a6b57600080fd5b8281019050602081018481111562001a8257600080fd5b815185600182028301116401000000008211171562001aa057600080fd5b50509291905050509050919050565b818160048054905062001ac162002777565b808060200183815260200182810382528585828181526020019250808284378201915050945050505050604051809103906000f08015801562001b08573d6000803e3d6000fd5b50600160003373ffffffffffffffffffffffffffffffffffffffff1673ffffffffffffffffffffffffffffffffffffffff16815260200190815260200160002060006101000a81548173ffffffffffffffffffffffffffffffffffffffff021916908373ffffffffffffffffffffffffffffffffffffffff1602179055506004600160003373ffffffffffffffffffffffffffffffffffffffff1673ffffffffffffffffffffffffffffffffffffffff16815260200190815260200160002060009054906101000a900473ffffffffffffffffffffffffffffffffffffffff1690806001815401808255809150509060018203906000526020600020016000909192909190916101000a81548173ffffffffffffffffffffffffffffffffffffffff021916908373ffffffffffffffffffffffffffffffffffffffff16021790555050336003838360405180838380828437820191505092505050908152602001604051809103902060006101000a81548173ffffffffffffffffffffffffffffffffffffffff021916908373ffffffffffffffffffffffffffffffffffffffff1602179055507f684515f4922b040c5cd6c46e1e959e031b33ad87b658f6b8472454dc4c447f2a33600160003373ffffffffffffffffffffffffffffffffffffffff1673ffffffffffffffffffffffffffffffffffffffff16815260200190815260200160002060009054906101000a900473ffffffffffffffffffffffffffffffffffffffff168484604051808573ffffffffffffffffffffffffffffffffffffffff1673ffffffffffffffffffffffffffffffffffffffff1681526020018473ffffffffffffffffffffffffffffffffffffffff1673ffffffffffffffffffffffffffffffffffffffff16815260200180602001828103825284848281815260200192508082843782019150509550505050505060405180910390a15050565b818162001dd762002788565b8080602001828103825284848281815260200192508082843782019150509350505050604051809103906000f08015801562001e17573d6000803e3d6000fd5b50600260003373ffffffffffffffffffffffffffffffffffffffff1673ffffffffffffffffffffffffffffffffffffffff16815260200190815260200160002060006101000a81548173ffffffffffffffffffffffffffffffffffffffff021916908373ffffffffffffffffffffffffffffffffffffffff1602179055507fbed5072071b3717fcc2439be7e5f72602224398cc42b8ace1582dee094b3d04b33600260003373ffffffffffffffffffffffffffffffffffffffff1673ffffffffffffffffffffffffffffffffffffffff16815260200190815260200160002060009054906101000a900473ffffffffffffffffffffffffffffffffffffffff168484604051808573ffffffffffffffffffffffffffffffffffffffff1673ffffffffffffffffffffffffffffffffffffffff1681526020018473ffffffffffffffffffffffffffffffffffffffff1673ffffffffffffffffffffffffffffffffffffffff16815260200180602001828103825284848281815260200192508082843782019150509550505050505060405180910390a15050565b60008062001fbe62002799565b336000600160008373ffffffffffffffffffffffffffffffffffffffff1673ffffffffffffffffffffffffffffffffffffffff16815260200190815260200160002060009054906101000a900473ffffffffffffffffffffffffffffffffffffffff1673ffffffffffffffffffffffffffffffffffffffff1614151515620020ae576040517f08c379a00000000000000000000000000000000000000000000000000000000081526004018080602001828103825260188152602001807f6d73672e73656e6465722069736e27742061727469737421000000000000000081525060200191505060405180910390fd5b6005805490509350600160003373ffffffffffffffffffffffffffffffffffffffff1673ffffffffffffffffffffffffffffffffffffffff16815260200190815260200160002060009054906101000a900473ffffffffffffffffffffffffffffffffffffffff1692506080604051908101604052808581526020018473ffffffffffffffffffffffffffffffffffffffff166317d7de7c6040518163ffffffff167c0100000000000000000000000000000000000000000000000000000000028152600401600060405180830381600087803b1580156200218f57600080fd5b505af1158015620021a4573d6000803e3d6000fd5b505050506040513d6000823e3d601f19601f820116820180604052506020811015620021cf57600080fd5b810190808051640100000000811115620021e857600080fd5b82810190506020810184811115620021ff57600080fd5b81518560018202830111640100000000821117156200221d57600080fd5b505092919050505081526020018781526020018473ffffffffffffffffffffffffffffffffffffffff1663ab9dbd076040518163ffffffff167c0100000000000000000000000000000000000000000000000000000000028152600401602060405180830381600087803b1580156200229557600080fd5b505af1158015620022aa573d6000803e3d6000fd5b505050506040513d6020811015620022c157600080fd5b81019080805190602001909291905050508152509150600582908060018154018082558091505090600182039060005260206000209060040201600090919290919091506000820151816000015560208201518160010190805190602001906200232d929190620027c2565b5060408201518160020190805190602001906200234c929190620027c2565b5060608201518160030155505050336008600086815260200190815260200160002060006101000a81548173ffffffffffffffffffffffffffffffffffffffff021916908373ffffffffffffffffffffffffffffffffffffffff160217905550600960003373ffffffffffffffffffffffffffffffffffffffff1673ffffffffffffffffffffffffffffffffffffffff168152602001908152602001600020600081548092919060010191905055507fa3fae69a2a11d8c6714e4387f309ae9e9e80c57109e1e89f094db45f077aca72848787604051808481526020018060200180602001838103835285818151815260200191508051906020019080838360005b838110156200246b5780820151818401526020810190506200244e565b50505050905090810190601f168015620024995780820380516001836020036101000a031916815260200191505b50838103825284818151815260200191508051906020019080838360005b83811015620024d4578082015181840152602081019050620024b7565b50505050905090810190601f168015620025025780820380516001836020036101000a031916815260200191505b509550505050505060405180910390a1505050505050565b60076020528060005260406000206000915090505481565b6060600060606005848154811015156200254857fe5b90600052602060002090600402016001016005858154811015156200256957fe5b9060005260206000209060040201600301546005868154811015156200258b57fe5b9060005260206000209060040201600201828054600181600116156101000203166002900480601f016020809104026020016040519081016040528092919081815260200182805460018160011615610100020316600290048015620026355780601f10620026095761010080835404028352916020019162002635565b820191906000526020600020905b8154815290600101906020018083116200261757829003601f168201915b50505050509250808054600181600116156101000203166002900480601f016020809104026020016040519081016040528092919081815260200182805460018160011615610100020316600290048015620026d55780601f10620026a957610100808354040283529160200191620026d5565b820191906000526020600020905b815481529060010190602001808311620026b757829003601f168201915b505050505090509250925092509193909250565b828054600181600116156101000203166002900490600052602060002090601f016020900481019282601f1062002724578054855562002764565b828001600101855582156200276457600052602060002091601f016020900482015b828111156200276357825482559160010191906001019062002746565b5b50905062002773919062002849565b5090565b604051610693806200287283390190565b60405161063e8062002f0583390190565b608060405190810160405280600081526020016060815260200160608152602001600081525090565b828054600181600116156101000203166002900490600052602060002090601f016020900481019282601f106200280557805160ff191683800117855562002836565b8280016001018555821562002836579182015b828111156200283557825182559160200191906001019062002818565b5b50905062002845919062002849565b5090565b6200286e91905b808211156200286a57600081600090555060010162002850565b5090565b90560060806040526040516106933803806106938339810180604052810190808051820192919060200180519060200190929190505050336000806101000a81548173ffffffffffffffffffffffffffffffffffffffff021916908373ffffffffffffffffffffffffffffffffffffffff1602179055508160019080519060200190610089929190610098565b5080600281905550505061013d565b828054600181600116156101000203166002900490600052602060002090601f016020900481019282601f106100d957805160ff1916838001178555610107565b82800160010185558215610107579182015b828111156101065782518255916020019190600101906100eb565b5b5090506101149190610118565b5090565b61013a91905b8082111561013657600081600090555060010161011e565b5090565b90565b6105478061014c6000396000f300608060405260043610610062576000357c0100000000000000000000000000000000000000000000000000000000900463ffffffff16806317d7de7c146100675780633ccfd60b146100f7578063ab9dbd071461010e578063c71daccb14610139575b600080fd5b34801561007357600080fd5b5061007c610164565b6040518080602001828103825283818151815260200191508051906020019080838360005b838110156100bc5780820151818401526020810190506100a1565b50505050905090810190601f1680156100e95780820380516001836020036101000a031916815260200191505b509250505060405180910390f35b34801561010357600080fd5b5061010c610206565b005b34801561011a57600080fd5b5061012361033c565b6040518082815260200191505060405180910390f35b34801561014557600080fd5b5061014e610346565b6040518082815260200191505060405180910390f35b606060018054600181600116156101000203166002900480601f0160208091040260200160405190810160405280929190818152602001828054600181600116156101000203166002900480156101fc5780601f106101d1576101008083540402835291602001916101fc565b820191906000526020600020905b8154815290600101906020018083116101df57829003601f168201915b5050505050905090565b6000806000809054906101000a900473ffffffffffffffffffffffffffffffffffffffff1673ffffffffffffffffffffffffffffffffffffffff163373ffffffffffffffffffffffffffffffffffffffff161415156102cd576040517f08c379a00000000000000000000000000000000000000000000000000000000081526004018080602001828103825260128152602001807f5065726d697373696f6e2064656e6965642e000000000000000000000000000081525060200191505060405180910390fd5b3091506102d861042e565b90508073ffffffffffffffffffffffffffffffffffffffff166108fc8373ffffffffffffffffffffffffffffffffffffffff16319081150290604051600060405180830381858888f19350505050158015610337573d6000803e3d6000fd5b505050565b6000600254905090565b6000806000809054906101000a900473ffffffffffffffffffffffffffffffffffffffff1673ffffffffffffffffffffffffffffffffffffffff163373ffffffffffffffffffffffffffffffffffffffff1614151561040d576040517f08c379a00000000000000000000000000000000000000000000000000000000081526004018080602001828103825260128152602001807f5065726d697373696f6e2064656e6965642e000000000000000000000000000081525060200191505060405180910390fd5b3090508073ffffffffffffffffffffffffffffffffffffffff163191505090565b60008060009054906101000a900473ffffffffffffffffffffffffffffffffffffffff1673ffffffffffffffffffffffffffffffffffffffff163373ffffffffffffffffffffffffffffffffffffffff161415156104f4576040517f08c379a00000000000000000000000000000000000000000000000000000000081526004018080602001828103825260128152602001807f5065726d697373696f6e2064656e6965642e000000000000000000000000000081525060200191505060405180910390fd5b6000809054906101000a900473ffffffffffffffffffffffffffffffffffffffff169050905600a165627a7a7230582074403f07087e03a179984a5f91dfdbf462d60bfdc399006df834bdb4563db20a0029608060405260405161063e38038061063e83398101806040528101908080518201929190505050336000806101000a81548173ffffffffffffffffffffffffffffffffffffffff021916908373ffffffffffffffffffffffffffffffffffffffff160217905550806001908051906020019061007c929190610083565b5050610128565b828054600181600116156101000203166002900490600052602060002090601f016020900481019282601f106100c457805160ff19168380011785556100f2565b828001600101855582156100f2579182015b828111156100f15782518255916020019190600101906100d6565b5b5090506100ff9190610103565b5090565b61012591905b80821115610121576000816000905550600101610109565b5090565b90565b610507806101376000396000f300608060405260043610610057576000357c0100000000000000000000000000000000000000000000000000000000900463ffffffff16806317d7de7c1461005c5780633ccfd60b146100ec578063c71daccb14610103575b600080fd5b34801561006857600080fd5b5061007161012e565b6040518080602001828103825283818151815260200191508051906020019080838360005b838110156100b1578082015181840152602081019050610096565b50505050905090810190601f1680156100de5780820380516001836020036101000a031916815260200191505b509250505060405180910390f35b3480156100f857600080fd5b506101016101d0565b005b34801561010f57600080fd5b50610118610306565b6040518082815260200191505060405180910390f35b606060018054600181600116156101000203166002900480601f0160208091040260200160405190810160405280929190818152602001828054600181600116156101000203166002900480156101c65780601f1061019b576101008083540402835291602001916101c6565b820191906000526020600020905b8154815290600101906020018083116101a957829003601f168201915b5050505050905090565b6000806000809054906101000a900473ffffffffffffffffffffffffffffffffffffffff1673ffffffffffffffffffffffffffffffffffffffff163373ffffffffffffffffffffffffffffffffffffffff16141515610297576040517f08c379a00000000000000000000000000000000000000000000000000000000081526004018080602001828103825260128152602001807f5065726d697373696f6e2064656e6965642e000000000000000000000000000081525060200191505060405180910390fd5b3091506102a26103ee565b90508073ffffffffffffffffffffffffffffffffffffffff166108fc8373ffffffffffffffffffffffffffffffffffffffff16319081150290604051600060405180830381858888f19350505050158015610301573d6000803e3d6000fd5b505050565b6000806000809054906101000a900473ffffffffffffffffffffffffffffffffffffffff1673ffffffffffffffffffffffffffffffffffffffff163373ffffffffffffffffffffffffffffffffffffffff161415156103cd576040517f08c379a00000000000000000000000000000000000000000000000000000000081526004018080602001828103825260128152602001807f5065726d697373696f6e2064656e6965642e000000000000000000000000000081525060200191505060405180910390fd5b3090508073ffffffffffffffffffffffffffffffffffffffff163191505090565b60008060009054906101000a900473ffffffffffffffffffffffffffffffffffffffff1673ffffffffffffffffffffffffffffffffffffffff163373ffffffffffffffffffffffffffffffffffffffff161415156104b4576040517f08c379a00000000000000000000000000000000000000000000000000000000081526004018080602001828103825260128152602001807f5065726d697373696f6e2064656e6965642e000000000000000000000000000081525060200191505060405180910390fd5b6000809054906101000a900473ffffffffffffffffffffffffffffffffffffffff169050905600a165627a7a72305820bc86cb3fb5ba20f504cc64895342750222bf6301fd5ce94d2314c7f15f543b9b0029a165627a7a72305820f423a2c6c803aa455afc1d37e2d933c22e369b7452e149198d748c1e4912dbdc0029",
  "source": "pragma solidity ^0.4.23;\n\nimport \"./SongLib.sol\";\nimport \"./Manager.sol\";\n\n/*\n    TODO: memory <-> storage\n    view / pure / external / internal\n\n*/\n\ncontract SongManager is Manager {\n\n    event SongCreated(uint songID, string title, string ipfsHash);\n\n    SongLib.Song[] public songs;\n\n    mapping (address => SongLib.MapSong) listenerAccountToSongs;\n    mapping (address => uint) public listenerAccountToSongCount;\n    mapping (uint => address) public songIDToArtistAccount;\n    mapping (address => uint) public artistAccountToSongCount;\n\n    constructor() public payable {}\n\n    modifier onlyArtist(address _artistAccount) {\n        require(accountToArtistAddr[_artistAccount] != 0, \"msg.sender isn't artist!\");\n        _;\n    }\n\n    modifier onlyListener(address _listenerAccount) {\n        require(accountToListenerAddr[_listenerAccount] != 0, \"msg.sender isn't listener!\");\n        _;\n    }\n\n    function registerSong(string _title, string _ipfsHash) public onlyArtist(msg.sender) {\n        //    exception handling\n        uint id = songs.length;\n        Artist artist = Artist(accountToArtistAddr[msg.sender]);\n        SongLib.Song memory song = SongLib.Song(id, artist.getName(), _title, artist.getID());\n        songs.push(song);\n        // add song into artist' song list.\n        songIDToArtistAccount[id] = msg.sender;\n        artistAccountToSongCount[msg.sender]++;\n\n        emit SongCreated(id, _title, _ipfsHash);\n    }\n\n    function buySong(uint _id) public payable onlyListener(msg.sender) {\n        // pay for music\n\n        // wrong condition sentence (id == 100) need to be changed\n        require(listenerAccountToSongs[msg.sender].songIDToSong[_id].id == 100, \"the song already exsits!\");\n        require(msg.value == 1 ether, \"not enough or too much ether to buy a song!\");\n        address artistAccount = songIDToArtistAccount[_id];\n        artistAccount.transfer(msg.value);\n\n\n        /*  error : The constructor should be payable if you send value.\n\n        address _contract = this;\n        uint fee = 10;\n        uint toArtist = msg.value * (100 - fee) / 10;\n        uint toPlatform = msg.value - toArtist;\n\n        artistAccount.transfer(toArtist);\n        _contract.transfer(toPlatform);\n        */\n\n        // add song into listener' song list.\n        listenerAccountToSongs[msg.sender].songIDToSong[_id] = songs[_id];\n        listenerAccountToSongCount[msg.sender]++;\n    }\n\n    // is this needed?\n    function getSongIDsByArtistID(uint _idx) public view returns (uint[]) {\n        string memory name = getArtistNameByIndex(_idx);\n        address artistAccount = artistNameToArtistAccount[name];\n        uint[] memory songIDs = new uint[](artistAccountToSongCount[artistAccount]);\n        uint count = 0;\n\n        for(uint i = 0; i < songs.length; i++) {\n            if(songIDToArtistAccount[i] == artistAccount) {\n                songIDs[count++] = i;\n            }\n        }\n        return songIDs;\n    }\n\n    function getSongIDsByArtistName(string _name) public view returns (uint[]) {\n        address artistAccount = artistNameToArtistAccount[_name];\n        uint[] memory songIDs = new uint[](artistAccountToSongCount[artistAccount]);\n        uint count = 0;\n\n        for(uint i = 0; i < songs.length; i++) {\n            if(songIDToArtistAccount[i] == artistAccount) {\n                songIDs[count++] = i;\n            }\n        }\n        return songIDs;\n    }\n\n    //    \n    function getSongBySongID(uint songID) public view returns (\n        string,\n        uint,\n        string\n    ) {\n        return (songs[songID].artistName, songs[songID].artistID, songs[songID].title);\n    }\n\n    // fallback\n    function() public payable {\n        revert();\n    }\n}\n",
  "sourcePath": "/home/brian/Desktop/jajup/truffle/contracts/SongManager.sol",
  "compiler": {
    "name": "solc",
    "version": "0.4.24+commit.e67f0147.Emscripten.clang"
  },
  "schemaVersion": "2.0.1",
  "updatedAt": "2018-11-30T16:44:04.821Z"
}